{
  "contractName": "CharityNFTTT",
  "abi": [
    {
      "inputs": [],
      "stateMutability": "nonpayable",
      "type": "constructor"
    },
    {
      "anonymous": false,
      "inputs": [
        {
          "indexed": true,
          "internalType": "address",
          "name": "owner",
          "type": "address"
        },
        {
          "indexed": true,
          "internalType": "address",
          "name": "approved",
          "type": "address"
        },
        {
          "indexed": true,
          "internalType": "uint256",
          "name": "tokenId",
          "type": "uint256"
        }
      ],
      "name": "Approval",
      "type": "event"
    },
    {
      "anonymous": false,
      "inputs": [
        {
          "indexed": true,
          "internalType": "address",
          "name": "owner",
          "type": "address"
        },
        {
          "indexed": true,
          "internalType": "address",
          "name": "operator",
          "type": "address"
        },
        {
          "indexed": false,
          "internalType": "bool",
          "name": "approved",
          "type": "bool"
        }
      ],
      "name": "ApprovalForAll",
      "type": "event"
    },
    {
      "anonymous": false,
      "inputs": [
        {
          "indexed": true,
          "internalType": "address",
          "name": "previousOwner",
          "type": "address"
        },
        {
          "indexed": true,
          "internalType": "address",
          "name": "newOwner",
          "type": "address"
        }
      ],
      "name": "OwnershipTransferred",
      "type": "event"
    },
    {
      "anonymous": false,
      "inputs": [
        {
          "indexed": true,
          "internalType": "address",
          "name": "from",
          "type": "address"
        },
        {
          "indexed": true,
          "internalType": "address",
          "name": "to",
          "type": "address"
        },
        {
          "indexed": true,
          "internalType": "uint256",
          "name": "tokenId",
          "type": "uint256"
        }
      ],
      "name": "Transfer",
      "type": "event"
    },
    {
      "inputs": [
        {
          "internalType": "address",
          "name": "to",
          "type": "address"
        },
        {
          "internalType": "uint256",
          "name": "tokenId",
          "type": "uint256"
        }
      ],
      "name": "approve",
      "outputs": [],
      "stateMutability": "nonpayable",
      "type": "function"
    },
    {
      "inputs": [
        {
          "internalType": "address",
          "name": "owner",
          "type": "address"
        }
      ],
      "name": "balanceOf",
      "outputs": [
        {
          "internalType": "uint256",
          "name": "",
          "type": "uint256"
        }
      ],
      "stateMutability": "view",
      "type": "function",
      "constant": true
    },
    {
      "inputs": [
        {
          "internalType": "uint256",
          "name": "",
          "type": "uint256"
        },
        {
          "internalType": "uint256",
          "name": "",
          "type": "uint256"
        }
      ],
      "name": "donations",
      "outputs": [
        {
          "internalType": "address",
          "name": "donor",
          "type": "address"
        },
        {
          "internalType": "uint256",
          "name": "amount",
          "type": "uint256"
        }
      ],
      "stateMutability": "view",
      "type": "function",
      "constant": true
    },
    {
      "inputs": [
        {
          "internalType": "uint256",
          "name": "tokenId",
          "type": "uint256"
        }
      ],
      "name": "getApproved",
      "outputs": [
        {
          "internalType": "address",
          "name": "",
          "type": "address"
        }
      ],
      "stateMutability": "view",
      "type": "function",
      "constant": true
    },
    {
      "inputs": [
        {
          "internalType": "address",
          "name": "owner",
          "type": "address"
        },
        {
          "internalType": "address",
          "name": "operator",
          "type": "address"
        }
      ],
      "name": "isApprovedForAll",
      "outputs": [
        {
          "internalType": "bool",
          "name": "",
          "type": "bool"
        }
      ],
      "stateMutability": "view",
      "type": "function",
      "constant": true
    },
    {
      "inputs": [],
      "name": "name",
      "outputs": [
        {
          "internalType": "string",
          "name": "",
          "type": "string"
        }
      ],
      "stateMutability": "view",
      "type": "function",
      "constant": true
    },
    {
      "inputs": [
        {
          "internalType": "uint256",
          "name": "",
          "type": "uint256"
        }
      ],
      "name": "nfts",
      "outputs": [
        {
          "internalType": "string",
          "name": "name",
          "type": "string"
        },
        {
          "internalType": "string",
          "name": "description",
          "type": "string"
        },
        {
          "internalType": "string",
          "name": "imageURI",
          "type": "string"
        },
        {
          "internalType": "uint256",
          "name": "goalAmount",
          "type": "uint256"
        },
        {
          "internalType": "uint256",
          "name": "totalDonated",
          "type": "uint256"
        },
        {
          "internalType": "address payable",
          "name": "creator",
          "type": "address"
        }
      ],
      "stateMutability": "view",
      "type": "function",
      "constant": true
    },
    {
      "inputs": [],
      "name": "owner",
      "outputs": [
        {
          "internalType": "address",
          "name": "",
          "type": "address"
        }
      ],
      "stateMutability": "view",
      "type": "function",
      "constant": true
    },
    {
      "inputs": [
        {
          "internalType": "uint256",
          "name": "tokenId",
          "type": "uint256"
        }
      ],
      "name": "ownerOf",
      "outputs": [
        {
          "internalType": "address",
          "name": "",
          "type": "address"
        }
      ],
      "stateMutability": "view",
      "type": "function",
      "constant": true
    },
    {
      "inputs": [],
      "name": "renounceOwnership",
      "outputs": [],
      "stateMutability": "nonpayable",
      "type": "function"
    },
    {
      "inputs": [
        {
          "internalType": "uint256",
          "name": "",
          "type": "uint256"
        },
        {
          "internalType": "uint256",
          "name": "",
          "type": "uint256"
        }
      ],
      "name": "results",
      "outputs": [
        {
          "internalType": "string",
          "name": "imageURI",
          "type": "string"
        },
        {
          "internalType": "string",
          "name": "description",
          "type": "string"
        }
      ],
      "stateMutability": "view",
      "type": "function",
      "constant": true
    },
    {
      "inputs": [
        {
          "internalType": "address",
          "name": "from",
          "type": "address"
        },
        {
          "internalType": "address",
          "name": "to",
          "type": "address"
        },
        {
          "internalType": "uint256",
          "name": "tokenId",
          "type": "uint256"
        }
      ],
      "name": "safeTransferFrom",
      "outputs": [],
      "stateMutability": "nonpayable",
      "type": "function"
    },
    {
      "inputs": [
        {
          "internalType": "address",
          "name": "from",
          "type": "address"
        },
        {
          "internalType": "address",
          "name": "to",
          "type": "address"
        },
        {
          "internalType": "uint256",
          "name": "tokenId",
          "type": "uint256"
        },
        {
          "internalType": "bytes",
          "name": "_data",
          "type": "bytes"
        }
      ],
      "name": "safeTransferFrom",
      "outputs": [],
      "stateMutability": "nonpayable",
      "type": "function"
    },
    {
      "inputs": [
        {
          "internalType": "address",
          "name": "operator",
          "type": "address"
        },
        {
          "internalType": "bool",
          "name": "approved",
          "type": "bool"
        }
      ],
      "name": "setApprovalForAll",
      "outputs": [],
      "stateMutability": "nonpayable",
      "type": "function"
    },
    {
      "inputs": [
        {
          "internalType": "bytes4",
          "name": "interfaceId",
          "type": "bytes4"
        }
      ],
      "name": "supportsInterface",
      "outputs": [
        {
          "internalType": "bool",
          "name": "",
          "type": "bool"
        }
      ],
      "stateMutability": "view",
      "type": "function",
      "constant": true
    },
    {
      "inputs": [],
      "name": "symbol",
      "outputs": [
        {
          "internalType": "string",
          "name": "",
          "type": "string"
        }
      ],
      "stateMutability": "view",
      "type": "function",
      "constant": true
    },
    {
      "inputs": [
        {
          "internalType": "uint256",
          "name": "tokenId",
          "type": "uint256"
        }
      ],
      "name": "tokenURI",
      "outputs": [
        {
          "internalType": "string",
          "name": "",
          "type": "string"
        }
      ],
      "stateMutability": "view",
      "type": "function",
      "constant": true
    },
    {
      "inputs": [
        {
          "internalType": "address",
          "name": "from",
          "type": "address"
        },
        {
          "internalType": "address",
          "name": "to",
          "type": "address"
        },
        {
          "internalType": "uint256",
          "name": "tokenId",
          "type": "uint256"
        }
      ],
      "name": "transferFrom",
      "outputs": [],
      "stateMutability": "nonpayable",
      "type": "function"
    },
    {
      "inputs": [
        {
          "internalType": "address",
          "name": "newOwner",
          "type": "address"
        }
      ],
      "name": "transferOwnership",
      "outputs": [],
      "stateMutability": "nonpayable",
      "type": "function"
    },
    {
      "inputs": [
        {
          "internalType": "string",
          "name": "name",
          "type": "string"
        },
        {
          "internalType": "string",
          "name": "description",
          "type": "string"
        },
        {
          "internalType": "string",
          "name": "imageURI",
          "type": "string"
        },
        {
          "internalType": "uint256",
          "name": "goalAmount",
          "type": "uint256"
        }
      ],
      "name": "createNFT",
      "outputs": [],
      "stateMutability": "nonpayable",
      "type": "function"
    },
    {
      "inputs": [
        {
          "internalType": "uint256",
          "name": "nftId",
          "type": "uint256"
        }
      ],
      "name": "donate",
      "outputs": [],
      "stateMutability": "payable",
      "type": "function",
      "payable": true
    },
    {
      "inputs": [
        {
          "internalType": "uint256",
          "name": "nftId",
          "type": "uint256"
        },
        {
          "internalType": "string",
          "name": "imageURI",
          "type": "string"
        },
        {
          "internalType": "string",
          "name": "description",
          "type": "string"
        }
      ],
      "name": "addResult",
      "outputs": [],
      "stateMutability": "nonpayable",
      "type": "function"
    },
    {
      "inputs": [
        {
          "internalType": "uint256",
          "name": "nftId",
          "type": "uint256"
        }
      ],
      "name": "getDonations",
      "outputs": [
        {
          "components": [
            {
              "internalType": "address",
              "name": "donor",
              "type": "address"
            },
            {
              "internalType": "uint256",
              "name": "amount",
              "type": "uint256"
            }
          ],
          "internalType": "struct CharityNFTTT.Donation[]",
          "name": "",
          "type": "tuple[]"
        }
      ],
      "stateMutability": "view",
      "type": "function",
      "constant": true
    },
    {
      "inputs": [
        {
          "internalType": "uint256",
          "name": "nftId",
          "type": "uint256"
        }
      ],
      "name": "getResults",
      "outputs": [
        {
          "components": [
            {
              "internalType": "string",
              "name": "imageURI",
              "type": "string"
            },
            {
              "internalType": "string",
              "name": "description",
              "type": "string"
            }
          ],
          "internalType": "struct CharityNFTTT.Result[]",
          "name": "",
          "type": "tuple[]"
        }
      ],
      "stateMutability": "view",
      "type": "function",
      "constant": true
    },
    {
      "inputs": [],
      "name": "getNFTs",
      "outputs": [
        {
          "components": [
            {
              "internalType": "string",
              "name": "name",
              "type": "string"
            },
            {
              "internalType": "string",
              "name": "description",
              "type": "string"
            },
            {
              "internalType": "string",
              "name": "imageURI",
              "type": "string"
            },
            {
              "internalType": "uint256",
              "name": "goalAmount",
              "type": "uint256"
            },
            {
              "internalType": "uint256",
              "name": "totalDonated",
              "type": "uint256"
            },
            {
              "internalType": "address payable",
              "name": "creator",
              "type": "address"
            }
          ],
          "internalType": "struct CharityNFTTT.NFTDetails[]",
          "name": "",
          "type": "tuple[]"
        }
      ],
      "stateMutability": "view",
      "type": "function",
      "constant": true
    },
    {
      "inputs": [
        {
          "internalType": "address",
          "name": "user",
          "type": "address"
        }
      ],
      "name": "getUserDonations",
      "outputs": [
        {
          "internalType": "uint256[]",
          "name": "nftIds",
          "type": "uint256[]"
        },
        {
          "internalType": "uint256[]",
          "name": "amounts",
          "type": "uint256[]"
        }
      ],
      "stateMutability": "view",
      "type": "function",
      "constant": true
    }
  ],
  "bytecode": "0x60806040523480156200001157600080fd5b506040518060400160405280600a81526020017f436861726974794e4654000000000000000000000000000000000000000000008152506040518060400160405280600581526020017f43484e4654000000000000000000000000000000000000000000000000000000815250816000908051906020019062000096929190620001a6565b508060019080519060200190620000af929190620001a6565b505050620000d2620000c6620000d860201b60201c565b620000e060201b60201c565b620002bb565b600033905090565b6000600660009054906101000a900473ffffffffffffffffffffffffffffffffffffffff16905081600660006101000a81548173ffffffffffffffffffffffffffffffffffffffff021916908373ffffffffffffffffffffffffffffffffffffffff1602179055508173ffffffffffffffffffffffffffffffffffffffff168173ffffffffffffffffffffffffffffffffffffffff167f8be0079c531659141344cd1fd0a4f28419497f9722a3daafe3b4186f6b6457e060405160405180910390a35050565b828054620001b49062000256565b90600052602060002090601f016020900481019282620001d8576000855562000224565b82601f10620001f357805160ff191683800117855562000224565b8280016001018555821562000224579182015b828111156200022357825182559160200191906001019062000206565b5b50905062000233919062000237565b5090565b5b808211156200025257600081600090555060010162000238565b5090565b600060028204905060018216806200026f57607f821691505b602082108114156200028657620002856200028c565b5b50919050565b7f4e487b7100000000000000000000000000000000000000000000000000000000600052602260045260246000fd5b614c7580620002cb6000396000f3fe6080604052600436106101815760003560e01c8063732435b2116100d1578063b88d4fde1161008a578063d70c6f4e11610064578063d70c6f4e146105d1578063e985e9c51461060f578063f14faf6f1461064c578063f2fde38b1461066857610181565b8063b88d4fde14610542578063c87b56dd1461056b578063ca1e217f146105a857610181565b8063732435b21461041f5780637d48c1f01461045d57806381a60c0d146104865780638da5cb5b146104c357806395d89b41146104ee578063a22cb4651461051957610181565b8063265aa6211161013e578063596d9ce211610118578063596d9ce2146103515780636352211e1461038e57806370a08231146103cb578063715018a61461040857610181565b8063265aa621146102a857806342842e0e146102ea57806348f7b12e1461031357610181565b806301ffc9a71461018657806306fdde03146101c3578063081812fc146101ee578063095ea7b31461022b578063227212f21461025457806323b872dd1461027f575b600080fd5b34801561019257600080fd5b506101ad60048036038101906101a89190613383565b610691565b6040516101ba9190613de1565b60405180910390f35b3480156101cf57600080fd5b506101d8610773565b6040516101e59190613dfc565b60405180910390f35b3480156101fa57600080fd5b5061021560048036038101906102109190613480565b610805565b6040516102229190613cb4565b60405180910390f35b34801561023757600080fd5b50610252600480360381019061024d9190613347565b61088a565b005b34801561026057600080fd5b506102696109a2565b6040516102769190613d66565b60405180910390f35b34801561028b57600080fd5b506102a660048036038101906102a19190613241565b610c21565b005b3480156102b457600080fd5b506102cf60048036038101906102ca9190613480565b610c81565b6040516102e196959493929190613e55565b60405180910390f35b3480156102f657600080fd5b50610311600480360381019061030c9190613241565b610e85565b005b34801561031f57600080fd5b5061033a60048036038101906103359190613528565b610ea5565b604051610348929190613d1b565b60405180910390f35b34801561035d57600080fd5b5061037860048036038101906103739190613480565b610f06565b6040516103859190613d44565b60405180910390f35b34801561039a57600080fd5b506103b560048036038101906103b09190613480565b610fd8565b6040516103c29190613cb4565b60405180910390f35b3480156103d757600080fd5b506103f260048036038101906103ed91906131dc565b61108a565b6040516103ff919061416b565b60405180910390f35b34801561041457600080fd5b5061041d611142565b005b34801561042b57600080fd5b50610446600480360381019061044191906131dc565b6111ca565b604051610454929190613daa565b60405180910390f35b34801561046957600080fd5b50610484600480360381019061047f91906134a9565b6115d0565b005b34801561049257600080fd5b506104ad60048036038101906104a89190613480565b611782565b6040516104ba9190613d88565b60405180910390f35b3480156104cf57600080fd5b506104d8611918565b6040516104e59190613cb4565b60405180910390f35b3480156104fa57600080fd5b50610503611942565b6040516105109190613dfc565b60405180910390f35b34801561052557600080fd5b50610540600480360381019061053b919061330b565b6119d4565b005b34801561054e57600080fd5b5061056960048036038101906105649190613290565b6119ea565b005b34801561057757600080fd5b50610592600480360381019061058d9190613480565b611a4c565b60405161059f9190613dfc565b60405180910390f35b3480156105b457600080fd5b506105cf60048036038101906105ca91906133d5565b611af3565b005b3480156105dd57600080fd5b506105f860048036038101906105f39190613528565b611c3d565b604051610606929190613e1e565b60405180910390f35b34801561061b57600080fd5b5061063660048036038101906106319190613205565b611d8e565b6040516106439190613de1565b60405180910390f35b61066660048036038101906106619190613480565b611e22565b005b34801561067457600080fd5b5061068f600480360381019061068a91906131dc565b61223b565b005b60007f80ac58cd000000000000000000000000000000000000000000000000000000007bffffffffffffffffffffffffffffffffffffffffffffffffffffffff1916827bffffffffffffffffffffffffffffffffffffffffffffffffffffffff1916148061075c57507f5b5e139f000000000000000000000000000000000000000000000000000000007bffffffffffffffffffffffffffffffffffffffffffffffffffffffff1916827bffffffffffffffffffffffffffffffffffffffffffffffffffffffff1916145b8061076c575061076b82612333565b5b9050919050565b606060008054610782906144c8565b80601f01602080910402602001604051908101604052809291908181526020018280546107ae906144c8565b80156107fb5780601f106107d0576101008083540402835291602001916107fb565b820191906000526020600020905b8154815290600101906020018083116107de57829003601f168201915b5050505050905090565b60006108108261239d565b61084f576040517f08c379a00000000000000000000000000000000000000000000000000000000081526004016108469061408b565b60405180910390fd5b6004600083815260200190815260200160002060009054906101000a900473ffffffffffffffffffffffffffffffffffffffff169050919050565b600061089582610fd8565b90508073ffffffffffffffffffffffffffffffffffffffff168373ffffffffffffffffffffffffffffffffffffffff161415610906576040517f08c379a00000000000000000000000000000000000000000000000000000000081526004016108fd9061410b565b60405180910390fd5b8073ffffffffffffffffffffffffffffffffffffffff16610925612409565b73ffffffffffffffffffffffffffffffffffffffff16148061095457506109538161094e612409565b611d8e565b5b610993576040517f08c379a000000000000000000000000000000000000000000000000000000000815260040161098a9061400b565b60405180910390fd5b61099d8383612411565b505050565b60606007805480602002602001604051908101604052809291908181526020016000905b82821015610c1857838290600052602060002090600602016040518060c00160405290816000820180546109f9906144c8565b80601f0160208091040260200160405190810160405280929190818152602001828054610a25906144c8565b8015610a725780601f10610a4757610100808354040283529160200191610a72565b820191906000526020600020905b815481529060010190602001808311610a5557829003601f168201915b50505050508152602001600182018054610a8b906144c8565b80601f0160208091040260200160405190810160405280929190818152602001828054610ab7906144c8565b8015610b045780601f10610ad957610100808354040283529160200191610b04565b820191906000526020600020905b815481529060010190602001808311610ae757829003601f168201915b50505050508152602001600282018054610b1d906144c8565b80601f0160208091040260200160405190810160405280929190818152602001828054610b49906144c8565b8015610b965780601f10610b6b57610100808354040283529160200191610b96565b820191906000526020600020905b815481529060010190602001808311610b7957829003601f168201915b5050505050815260200160038201548152602001600482015481526020016005820160009054906101000a900473ffffffffffffffffffffffffffffffffffffffff1673ffffffffffffffffffffffffffffffffffffffff1673ffffffffffffffffffffffffffffffffffffffff1681525050815260200190600101906109c6565b50505050905090565b610c32610c2c612409565b826124ca565b610c71576040517f08c379a0000000000000000000000000000000000000000000000000000000008152600401610c689061412b565b60405180910390fd5b610c7c8383836125a8565b505050565b60078181548110610c9157600080fd5b9060005260206000209060060201600091509050806000018054610cb4906144c8565b80601f0160208091040260200160405190810160405280929190818152602001828054610ce0906144c8565b8015610d2d5780601f10610d0257610100808354040283529160200191610d2d565b820191906000526020600020905b815481529060010190602001808311610d1057829003601f168201915b505050505090806001018054610d42906144c8565b80601f0160208091040260200160405190810160405280929190818152602001828054610d6e906144c8565b8015610dbb5780601f10610d9057610100808354040283529160200191610dbb565b820191906000526020600020905b815481529060010190602001808311610d9e57829003601f168201915b505050505090806002018054610dd0906144c8565b80601f0160208091040260200160405190810160405280929190818152602001828054610dfc906144c8565b8015610e495780601f10610e1e57610100808354040283529160200191610e49565b820191906000526020600020905b815481529060010190602001808311610e2c57829003601f168201915b5050505050908060030154908060040154908060050160009054906101000a900473ffffffffffffffffffffffffffffffffffffffff16905086565b610ea0838383604051806020016040528060008152506119ea565b505050565b60086020528160005260406000208181548110610ec157600080fd5b9060005260206000209060020201600091509150508060000160009054906101000a900473ffffffffffffffffffffffffffffffffffffffff16908060010154905082565b606060086000838152602001908152602001600020805480602002602001604051908101604052809291908181526020016000905b82821015610fcd57838290600052602060002090600202016040518060400160405290816000820160009054906101000a900473ffffffffffffffffffffffffffffffffffffffff1673ffffffffffffffffffffffffffffffffffffffff1673ffffffffffffffffffffffffffffffffffffffff16815260200160018201548152505081526020019060010190610f3b565b505050509050919050565b6000806002600084815260200190815260200160002060009054906101000a900473ffffffffffffffffffffffffffffffffffffffff169050600073ffffffffffffffffffffffffffffffffffffffff168173ffffffffffffffffffffffffffffffffffffffff161415611081576040517f08c379a00000000000000000000000000000000000000000000000000000000081526004016110789061404b565b60405180910390fd5b80915050919050565b60008073ffffffffffffffffffffffffffffffffffffffff168273ffffffffffffffffffffffffffffffffffffffff1614156110fb576040517f08c379a00000000000000000000000000000000000000000000000000000000081526004016110f29061402b565b60405180910390fd5b600360008373ffffffffffffffffffffffffffffffffffffffff1673ffffffffffffffffffffffffffffffffffffffff168152602001908152602001600020549050919050565b61114a612409565b73ffffffffffffffffffffffffffffffffffffffff16611168611918565b73ffffffffffffffffffffffffffffffffffffffff16146111be576040517f08c379a00000000000000000000000000000000000000000000000000000000081526004016111b5906140ab565b60405180910390fd5b6111c8600061280f565b565b6060806000805b6007805490508110156112e55760005b60086000838152602001908152602001600020805490508110156112d1578573ffffffffffffffffffffffffffffffffffffffff16600860008481526020019081526020016000208281548110611261577f4e487b7100000000000000000000000000000000000000000000000000000000600052603260045260246000fd5b906000526020600020906002020160000160009054906101000a900473ffffffffffffffffffffffffffffffffffffffff1673ffffffffffffffffffffffffffffffffffffffff1614156112be5782806112ba9061452b565b9350505b80806112c99061452b565b9150506111e1565b5080806112dd9061452b565b9150506111d1565b508067ffffffffffffffff811115611326577f4e487b7100000000000000000000000000000000000000000000000000000000600052604160045260246000fd5b6040519080825280602002602001820160405280156113545781602001602082028036833780820191505090505b5092508067ffffffffffffffff811115611397577f4e487b7100000000000000000000000000000000000000000000000000000000600052604160045260246000fd5b6040519080825280602002602001820160405280156113c55781602001602082028036833780820191505090505b5091506000805b6007805490508110156115c85760005b60086000838152602001908152602001600020805490508110156115b4578673ffffffffffffffffffffffffffffffffffffffff1660086000848152602001908152602001600020828154811061145c577f4e487b7100000000000000000000000000000000000000000000000000000000600052603260045260246000fd5b906000526020600020906002020160000160009054906101000a900473ffffffffffffffffffffffffffffffffffffffff1673ffffffffffffffffffffffffffffffffffffffff1614156115a157818684815181106114e4577f4e487b7100000000000000000000000000000000000000000000000000000000600052603260045260246000fd5b60200260200101818152505060086000838152602001908152602001600020818154811061153b577f4e487b7100000000000000000000000000000000000000000000000000000000600052603260045260246000fd5b906000526020600020906002020160010154858481518110611586577f4e487b7100000000000000000000000000000000000000000000000000000000600052603260045260246000fd5b602002602001018181525050828061159d9061452b565b9350505b80806115ac9061452b565b9150506113dc565b5080806115c09061452b565b9150506113cc565b505050915091565b6007805490508310611617576040517f08c379a000000000000000000000000000000000000000000000000000000000815260040161160e9061414b565b60405180910390fd5b3373ffffffffffffffffffffffffffffffffffffffff1660078481548110611668577f4e487b7100000000000000000000000000000000000000000000000000000000600052603260045260246000fd5b906000526020600020906006020160050160009054906101000a900473ffffffffffffffffffffffffffffffffffffffff1673ffffffffffffffffffffffffffffffffffffffff16146116f0576040517f08c379a00000000000000000000000000000000000000000000000000000000081526004016116e7906140eb565b60405180910390fd5b600960008481526020019081526020016000206040518060400160405280848152602001838152509080600181540180825580915050600190039060005260206000209060020201600090919091909150600082015181600001908051906020019061175d929190613000565b50602082015181600101908051906020019061177a929190613000565b505050505050565b606060096000838152602001908152602001600020805480602002602001604051908101604052809291908181526020016000905b8282101561190d57838290600052602060002090600202016040518060400160405290816000820180546117ea906144c8565b80601f0160208091040260200160405190810160405280929190818152602001828054611816906144c8565b80156118635780601f1061183857610100808354040283529160200191611863565b820191906000526020600020905b81548152906001019060200180831161184657829003601f168201915b5050505050815260200160018201805461187c906144c8565b80601f01602080910402602001604051908101604052809291908181526020018280546118a8906144c8565b80156118f55780601f106118ca576101008083540402835291602001916118f5565b820191906000526020600020905b8154815290600101906020018083116118d857829003601f168201915b505050505081525050815260200190600101906117b7565b505050509050919050565b6000600660009054906101000a900473ffffffffffffffffffffffffffffffffffffffff16905090565b606060018054611951906144c8565b80601f016020809104026020016040519081016040528092919081815260200182805461197d906144c8565b80156119ca5780601f1061199f576101008083540402835291602001916119ca565b820191906000526020600020905b8154815290600101906020018083116119ad57829003601f168201915b5050505050905090565b6119e66119df612409565b83836128d5565b5050565b6119fb6119f5612409565b836124ca565b611a3a576040517f08c379a0000000000000000000000000000000000000000000000000000000008152600401611a319061412b565b60405180910390fd5b611a4684848484612a42565b50505050565b6060611a578261239d565b611a96576040517f08c379a0000000000000000000000000000000000000000000000000000000008152600401611a8d906140cb565b60405180910390fd5b6000611aa0612a9e565b90506000815111611ac05760405180602001604052806000815250611aeb565b80611aca84612ab5565b604051602001611adb929190613c90565b6040516020818303038152906040525b915050919050565b60076040518060c00160405280868152602001858152602001848152602001838152602001600081526020013373ffffffffffffffffffffffffffffffffffffffff1681525090806001815401808255809150506001900390600052602060002090600602016000909190919091506000820151816000019080519060200190611b7e929190613000565b506020820151816001019080519060200190611b9b929190613000565b506040820151816002019080519060200190611bb8929190613000565b50606082015181600301556080820151816004015560a08201518160050160006101000a81548173ffffffffffffffffffffffffffffffffffffffff021916908373ffffffffffffffffffffffffffffffffffffffff160217905550505060006001600780549050611c2a91906143cc565b9050611c363382612c62565b5050505050565b60096020528160005260406000208181548110611c5957600080fd5b906000526020600020906002020160009150915050806000018054611c7d906144c8565b80601f0160208091040260200160405190810160405280929190818152602001828054611ca9906144c8565b8015611cf65780601f10611ccb57610100808354040283529160200191611cf6565b820191906000526020600020905b815481529060010190602001808311611cd957829003601f168201915b505050505090806001018054611d0b906144c8565b80601f0160208091040260200160405190810160405280929190818152602001828054611d37906144c8565b8015611d845780601f10611d5957610100808354040283529160200191611d84565b820191906000526020600020905b815481529060010190602001808311611d6757829003601f168201915b5050505050905082565b6000600560008473ffffffffffffffffffffffffffffffffffffffff1673ffffffffffffffffffffffffffffffffffffffff16815260200190815260200160002060008373ffffffffffffffffffffffffffffffffffffffff1673ffffffffffffffffffffffffffffffffffffffff16815260200190815260200160002060009054906101000a900460ff16905092915050565b6007805490508110611e69576040517f08c379a0000000000000000000000000000000000000000000000000000000008152600401611e609061414b565b60405180910390fd5b60003411611eac576040517f08c379a0000000000000000000000000000000000000000000000000000000008152600401611ea390613f4b565b60405180910390fd5b3373ffffffffffffffffffffffffffffffffffffffff1660078281548110611efd577f4e487b7100000000000000000000000000000000000000000000000000000000600052603260045260246000fd5b906000526020600020906006020160050160009054906101000a900473ffffffffffffffffffffffffffffffffffffffff1673ffffffffffffffffffffffffffffffffffffffff161415611f86576040517f08c379a0000000000000000000000000000000000000000000000000000000008152600401611f7d90613fab565b60405180910390fd5b60078181548110611fc0577f4e487b7100000000000000000000000000000000000000000000000000000000600052603260045260246000fd5b906000526020600020906006020160030154346007838154811061200d577f4e487b7100000000000000000000000000000000000000000000000000000000600052603260045260246000fd5b9060005260206000209060060201600401546120299190614345565b111561206a576040517f08c379a000000000000000000000000000000000000000000000000000000000815260040161206190613feb565b60405180910390fd5b34600782815481106120a5577f4e487b7100000000000000000000000000000000000000000000000000000000600052603260045260246000fd5b906000526020600020906006020160040160008282546120c59190614345565b925050819055506008600082815260200190815260200160002060405180604001604052803373ffffffffffffffffffffffffffffffffffffffff16815260200134815250908060018154018082558091505060019003906000526020600020906002020160009091909190915060008201518160000160006101000a81548173ffffffffffffffffffffffffffffffffffffffff021916908373ffffffffffffffffffffffffffffffffffffffff160217905550602082015181600101555050600781815481106121c0577f4e487b7100000000000000000000000000000000000000000000000000000000600052603260045260246000fd5b906000526020600020906006020160050160009054906101000a900473ffffffffffffffffffffffffffffffffffffffff1673ffffffffffffffffffffffffffffffffffffffff166108fc349081150290604051600060405180830381858888f19350505050158015612237573d6000803e3d6000fd5b5050565b612243612409565b73ffffffffffffffffffffffffffffffffffffffff16612261611918565b73ffffffffffffffffffffffffffffffffffffffff16146122b7576040517f08c379a00000000000000000000000000000000000000000000000000000000081526004016122ae906140ab565b60405180910390fd5b600073ffffffffffffffffffffffffffffffffffffffff168173ffffffffffffffffffffffffffffffffffffffff161415612327576040517f08c379a000000000000000000000000000000000000000000000000000000000815260040161231e90613eeb565b60405180910390fd5b6123308161280f565b50565b60007f01ffc9a7000000000000000000000000000000000000000000000000000000007bffffffffffffffffffffffffffffffffffffffffffffffffffffffff1916827bffffffffffffffffffffffffffffffffffffffffffffffffffffffff1916149050919050565b60008073ffffffffffffffffffffffffffffffffffffffff166002600084815260200190815260200160002060009054906101000a900473ffffffffffffffffffffffffffffffffffffffff1673ffffffffffffffffffffffffffffffffffffffff1614159050919050565b600033905090565b816004600083815260200190815260200160002060006101000a81548173ffffffffffffffffffffffffffffffffffffffff021916908373ffffffffffffffffffffffffffffffffffffffff160217905550808273ffffffffffffffffffffffffffffffffffffffff1661248483610fd8565b73ffffffffffffffffffffffffffffffffffffffff167f8c5be1e5ebec7d5bd14f71427d1e84f3dd0314c0f7b2291e5b200ac8c7c3b92560405160405180910390a45050565b60006124d58261239d565b612514576040517f08c379a000000000000000000000000000000000000000000000000000000000815260040161250b90613fcb565b60405180910390fd5b600061251f83610fd8565b90508073ffffffffffffffffffffffffffffffffffffffff168473ffffffffffffffffffffffffffffffffffffffff16148061258e57508373ffffffffffffffffffffffffffffffffffffffff1661257684610805565b73ffffffffffffffffffffffffffffffffffffffff16145b8061259f575061259e8185611d8e565b5b91505092915050565b8273ffffffffffffffffffffffffffffffffffffffff166125c882610fd8565b73ffffffffffffffffffffffffffffffffffffffff161461261e576040517f08c379a000000000000000000000000000000000000000000000000000000000815260040161261590613f0b565b60405180910390fd5b600073ffffffffffffffffffffffffffffffffffffffff168273ffffffffffffffffffffffffffffffffffffffff16141561268e576040517f08c379a000000000000000000000000000000000000000000000000000000000815260040161268590613f6b565b60405180910390fd5b612699838383612e3c565b6126a4600082612411565b6001600360008573ffffffffffffffffffffffffffffffffffffffff1673ffffffffffffffffffffffffffffffffffffffff16815260200190815260200160002060008282546126f491906143cc565b925050819055506001600360008473ffffffffffffffffffffffffffffffffffffffff1673ffffffffffffffffffffffffffffffffffffffff168152602001908152602001600020600082825461274b9190614345565b92505081905550816002600083815260200190815260200160002060006101000a81548173ffffffffffffffffffffffffffffffffffffffff021916908373ffffffffffffffffffffffffffffffffffffffff160217905550808273ffffffffffffffffffffffffffffffffffffffff168473ffffffffffffffffffffffffffffffffffffffff167fddf252ad1be2c89b69c2b068fc378daa952ba7f163c4a11628f55a4df523b3ef60405160405180910390a461280a838383612e41565b505050565b6000600660009054906101000a900473ffffffffffffffffffffffffffffffffffffffff16905081600660006101000a81548173ffffffffffffffffffffffffffffffffffffffff021916908373ffffffffffffffffffffffffffffffffffffffff1602179055508173ffffffffffffffffffffffffffffffffffffffff168173ffffffffffffffffffffffffffffffffffffffff167f8be0079c531659141344cd1fd0a4f28419497f9722a3daafe3b4186f6b6457e060405160405180910390a35050565b8173ffffffffffffffffffffffffffffffffffffffff168373ffffffffffffffffffffffffffffffffffffffff161415612944576040517f08c379a000000000000000000000000000000000000000000000000000000000815260040161293b90613f8b565b60405180910390fd5b80600560008573ffffffffffffffffffffffffffffffffffffffff1673ffffffffffffffffffffffffffffffffffffffff16815260200190815260200160002060008473ffffffffffffffffffffffffffffffffffffffff1673ffffffffffffffffffffffffffffffffffffffff16815260200190815260200160002060006101000a81548160ff0219169083151502179055508173ffffffffffffffffffffffffffffffffffffffff168373ffffffffffffffffffffffffffffffffffffffff167f17307eab39ab6107e8899845ad3d59bd9653f200f220920489ca2b5937696c3183604051612a359190613de1565b60405180910390a3505050565b612a4d8484846125a8565b612a5984848484612e46565b612a98576040517f08c379a0000000000000000000000000000000000000000000000000000000008152600401612a8f90613ecb565b60405180910390fd5b50505050565b606060405180602001604052806000815250905090565b60606000821415612afd576040518060400160405280600181526020017f30000000000000000000000000000000000000000000000000000000000000008152509050612c5d565b600082905060005b60008214612b2f578080612b189061452b565b915050600a82612b28919061439b565b9150612b05565b60008167ffffffffffffffff811115612b71577f4e487b7100000000000000000000000000000000000000000000000000000000600052604160045260246000fd5b6040519080825280601f01601f191660200182016040528015612ba35781602001600182028036833780820191505090505b5090505b60008514612c5657600182612bbc91906143cc565b9150600a85612bcb9190614574565b6030612bd79190614345565b60f81b818381518110612c13577f4e487b7100000000000000000000000000000000000000000000000000000000600052603260045260246000fd5b60200101907effffffffffffffffffffffffffffffffffffffffffffffffffffffffffffff1916908160001a905350600a85612c4f919061439b565b9450612ba7565b8093505050505b919050565b600073ffffffffffffffffffffffffffffffffffffffff168273ffffffffffffffffffffffffffffffffffffffff161415612cd2576040517f08c379a0000000000000000000000000000000000000000000000000000000008152600401612cc99061406b565b60405180910390fd5b612cdb8161239d565b15612d1b576040517f08c379a0000000000000000000000000000000000000000000000000000000008152600401612d1290613f2b565b60405180910390fd5b612d2760008383612e3c565b6001600360008473ffffffffffffffffffffffffffffffffffffffff1673ffffffffffffffffffffffffffffffffffffffff1681526020019081526020016000206000828254612d779190614345565b92505081905550816002600083815260200190815260200160002060006101000a81548173ffffffffffffffffffffffffffffffffffffffff021916908373ffffffffffffffffffffffffffffffffffffffff160217905550808273ffffffffffffffffffffffffffffffffffffffff16600073ffffffffffffffffffffffffffffffffffffffff167fddf252ad1be2c89b69c2b068fc378daa952ba7f163c4a11628f55a4df523b3ef60405160405180910390a4612e3860008383612e41565b5050565b505050565b505050565b6000612e678473ffffffffffffffffffffffffffffffffffffffff16612fdd565b15612fd0578373ffffffffffffffffffffffffffffffffffffffff1663150b7a02612e90612409565b8786866040518563ffffffff1660e01b8152600401612eb29493929190613ccf565b602060405180830381600087803b158015612ecc57600080fd5b505af1925050508015612efd57506040513d601f19601f82011682018060405250810190612efa91906133ac565b60015b612f80573d8060008114612f2d576040519150601f19603f3d011682016040523d82523d6000602084013e612f32565b606091505b50600081511415612f78576040517f08c379a0000000000000000000000000000000000000000000000000000000008152600401612f6f90613ecb565b60405180910390fd5b805181602001fd5b63150b7a0260e01b7bffffffffffffffffffffffffffffffffffffffffffffffffffffffff1916817bffffffffffffffffffffffffffffffffffffffffffffffffffffffff191614915050612fd5565b600190505b949350505050565b6000808273ffffffffffffffffffffffffffffffffffffffff163b119050919050565b82805461300c906144c8565b90600052602060002090601f01602090048101928261302e5760008555613075565b82601f1061304757805160ff1916838001178555613075565b82800160010185558215613075579182015b82811115613074578251825591602001919060010190613059565b5b5090506130829190613086565b5090565b5b8082111561309f576000816000905550600101613087565b5090565b60006130b66130b1846141ab565b614186565b9050828152602081018484840111156130ce57600080fd5b6130d9848285614486565b509392505050565b60006130f46130ef846141dc565b614186565b90508281526020810184848401111561310c57600080fd5b613117848285614486565b509392505050565b60008135905061312e81614be3565b92915050565b60008135905061314381614bfa565b92915050565b60008135905061315881614c11565b92915050565b60008151905061316d81614c11565b92915050565b600082601f83011261318457600080fd5b81356131948482602086016130a3565b91505092915050565b600082601f8301126131ae57600080fd5b81356131be8482602086016130e1565b91505092915050565b6000813590506131d681614c28565b92915050565b6000602082840312156131ee57600080fd5b60006131fc8482850161311f565b91505092915050565b6000806040838503121561321857600080fd5b60006132268582860161311f565b92505060206132378582860161311f565b9150509250929050565b60008060006060848603121561325657600080fd5b60006132648682870161311f565b93505060206132758682870161311f565b9250506040613286868287016131c7565b9150509250925092565b600080600080608085870312156132a657600080fd5b60006132b48782880161311f565b94505060206132c58782880161311f565b93505060406132d6878288016131c7565b925050606085013567ffffffffffffffff8111156132f357600080fd5b6132ff87828801613173565b91505092959194509250565b6000806040838503121561331e57600080fd5b600061332c8582860161311f565b925050602061333d85828601613134565b9150509250929050565b6000806040838503121561335a57600080fd5b60006133688582860161311f565b9250506020613379858286016131c7565b9150509250929050565b60006020828403121561339557600080fd5b60006133a384828501613149565b91505092915050565b6000602082840312156133be57600080fd5b60006133cc8482850161315e565b91505092915050565b600080600080608085870312156133eb57600080fd5b600085013567ffffffffffffffff81111561340557600080fd5b6134118782880161319d565b945050602085013567ffffffffffffffff81111561342e57600080fd5b61343a8782880161319d565b935050604085013567ffffffffffffffff81111561345757600080fd5b6134638782880161319d565b9250506060613474878288016131c7565b91505092959194509250565b60006020828403121561349257600080fd5b60006134a0848285016131c7565b91505092915050565b6000806000606084860312156134be57600080fd5b60006134cc868287016131c7565b935050602084013567ffffffffffffffff8111156134e957600080fd5b6134f58682870161319d565b925050604084013567ffffffffffffffff81111561351257600080fd5b61351e8682870161319d565b9150509250925092565b6000806040838503121561353b57600080fd5b6000613549858286016131c7565b925050602061355a858286016131c7565b9150509250929050565b60006135708383613b68565b60408301905092915050565b60006135888383613b97565b905092915050565b600061359c8383613c2e565b905092915050565b60006135b08383613c72565b60208301905092915050565b6135c581614412565b82525050565b6135d481614412565b82525050565b6135e381614400565b82525050565b6135f281614400565b82525050565b60006136038261424d565b61360d81856142c3565b93506136188361420d565b8060005b838110156136495781516136308882613564565b975061363b8361428f565b92505060018101905061361c565b5085935050505092915050565b600061366182614258565b61366b81856142d4565b93508360208202850161367d8561421d565b8060005b858110156136b9578484038952815161369a858261357c565b94506136a58361429c565b925060208a01995050600181019050613681565b50829750879550505050505092915050565b60006136d682614263565b6136e081856142e5565b9350836020820285016136f28561422d565b8060005b8581101561372e578484038952815161370f8582613590565b945061371a836142a9565b925060208a019950506001810190506136f6565b50829750879550505050505092915050565b600061374b8261426e565b61375581856142f6565b93506137608361423d565b8060005b8381101561379157815161377888826135a4565b9750613783836142b6565b925050600181019050613764565b5085935050505092915050565b6137a781614424565b82525050565b60006137b882614279565b6137c28185614307565b93506137d2818560208601614495565b6137db81614661565b840191505092915050565b60006137f182614284565b6137fb8185614318565b935061380b818560208601614495565b61381481614661565b840191505092915050565b600061382a82614284565b6138348185614329565b9350613844818560208601614495565b61384d81614661565b840191505092915050565b600061386382614284565b61386d818561433a565b935061387d818560208601614495565b80840191505092915050565b6000613896603283614329565b91506138a182614672565b604082019050919050565b60006138b9602683614329565b91506138c4826146c1565b604082019050919050565b60006138dc602583614329565b91506138e782614710565b604082019050919050565b60006138ff601c83614329565b915061390a8261475f565b602082019050919050565b6000613922602683614329565b915061392d82614788565b604082019050919050565b6000613945602483614329565b9150613950826147d7565b604082019050919050565b6000613968601983614329565b915061397382614826565b602082019050919050565b600061398b602683614329565b91506139968261484f565b604082019050919050565b60006139ae602c83614329565b91506139b98261489e565b604082019050919050565b60006139d1601c83614329565b91506139dc826148ed565b602082019050919050565b60006139f4603883614329565b91506139ff82614916565b604082019050919050565b6000613a17602a83614329565b9150613a2282614965565b604082019050919050565b6000613a3a602983614329565b9150613a45826149b4565b604082019050919050565b6000613a5d602083614329565b9150613a6882614a03565b602082019050919050565b6000613a80602c83614329565b9150613a8b82614a2c565b604082019050919050565b6000613aa3602083614329565b9150613aae82614a7b565b602082019050919050565b6000613ac6602f83614329565b9150613ad182614aa4565b604082019050919050565b6000613ae9602083614329565b9150613af482614af3565b602082019050919050565b6000613b0c602183614329565b9150613b1782614b1c565b604082019050919050565b6000613b2f603183614329565b9150613b3a82614b6b565b604082019050919050565b6000613b52601283614329565b9150613b5d82614bba565b602082019050919050565b604082016000820151613b7e60008501826135da565b506020820151613b916020850182613c72565b50505050565b600060c0830160008301518482036000860152613bb482826137e6565b91505060208301518482036020860152613bce82826137e6565b91505060408301518482036040860152613be882826137e6565b9150506060830151613bfd6060860182613c72565b506080830151613c106080860182613c72565b5060a0830151613c2360a08601826135bc565b508091505092915050565b60006040830160008301518482036000860152613c4b82826137e6565b91505060208301518482036020860152613c6582826137e6565b9150508091505092915050565b613c7b8161447c565b82525050565b613c8a8161447c565b82525050565b6000613c9c8285613858565b9150613ca88284613858565b91508190509392505050565b6000602082019050613cc960008301846135e9565b92915050565b6000608082019050613ce460008301876135e9565b613cf160208301866135e9565b613cfe6040830185613c81565b8181036060830152613d1081846137ad565b905095945050505050565b6000604082019050613d3060008301856135e9565b613d3d6020830184613c81565b9392505050565b60006020820190508181036000830152613d5e81846135f8565b905092915050565b60006020820190508181036000830152613d808184613656565b905092915050565b60006020820190508181036000830152613da281846136cb565b905092915050565b60006040820190508181036000830152613dc48185613740565b90508181036020830152613dd88184613740565b90509392505050565b6000602082019050613df6600083018461379e565b92915050565b60006020820190508181036000830152613e16818461381f565b905092915050565b60006040820190508181036000830152613e38818561381f565b90508181036020830152613e4c818461381f565b90509392505050565b600060c0820190508181036000830152613e6f818961381f565b90508181036020830152613e83818861381f565b90508181036040830152613e97818761381f565b9050613ea66060830186613c81565b613eb36080830185613c81565b613ec060a08301846135cb565b979650505050505050565b60006020820190508181036000830152613ee481613889565b9050919050565b60006020820190508181036000830152613f04816138ac565b9050919050565b60006020820190508181036000830152613f24816138cf565b9050919050565b60006020820190508181036000830152613f44816138f2565b9050919050565b60006020820190508181036000830152613f6481613915565b9050919050565b60006020820190508181036000830152613f8481613938565b9050919050565b60006020820190508181036000830152613fa48161395b565b9050919050565b60006020820190508181036000830152613fc48161397e565b9050919050565b60006020820190508181036000830152613fe4816139a1565b9050919050565b60006020820190508181036000830152614004816139c4565b9050919050565b60006020820190508181036000830152614024816139e7565b9050919050565b6000602082019050818103600083015261404481613a0a565b9050919050565b6000602082019050818103600083015261406481613a2d565b9050919050565b6000602082019050818103600083015261408481613a50565b9050919050565b600060208201905081810360008301526140a481613a73565b9050919050565b600060208201905081810360008301526140c481613a96565b9050919050565b600060208201905081810360008301526140e481613ab9565b9050919050565b6000602082019050818103600083015261410481613adc565b9050919050565b6000602082019050818103600083015261412481613aff565b9050919050565b6000602082019050818103600083015261414481613b22565b9050919050565b6000602082019050818103600083015261416481613b45565b9050919050565b60006020820190506141806000830184613c81565b92915050565b60006141906141a1565b905061419c82826144fa565b919050565b6000604051905090565b600067ffffffffffffffff8211156141c6576141c5614632565b5b6141cf82614661565b9050602081019050919050565b600067ffffffffffffffff8211156141f7576141f6614632565b5b61420082614661565b9050602081019050919050565b6000819050602082019050919050565b6000819050602082019050919050565b6000819050602082019050919050565b6000819050602082019050919050565b600081519050919050565b600081519050919050565b600081519050919050565b600081519050919050565b600081519050919050565b600081519050919050565b6000602082019050919050565b6000602082019050919050565b6000602082019050919050565b6000602082019050919050565b600082825260208201905092915050565b600082825260208201905092915050565b600082825260208201905092915050565b600082825260208201905092915050565b600082825260208201905092915050565b600082825260208201905092915050565b600082825260208201905092915050565b600081905092915050565b60006143508261447c565b915061435b8361447c565b9250827fffffffffffffffffffffffffffffffffffffffffffffffffffffffffffffffff038211156143905761438f6145a5565b5b828201905092915050565b60006143a68261447c565b91506143b18361447c565b9250826143c1576143c06145d4565b5b828204905092915050565b60006143d78261447c565b91506143e28361447c565b9250828210156143f5576143f46145a5565b5b828203905092915050565b600061440b8261445c565b9050919050565b600061441d8261445c565b9050919050565b60008115159050919050565b60007fffffffff0000000000000000000000000000000000000000000000000000000082169050919050565b600073ffffffffffffffffffffffffffffffffffffffff82169050919050565b6000819050919050565b82818337600083830152505050565b60005b838110156144b3578082015181840152602081019050614498565b838111156144c2576000848401525b50505050565b600060028204905060018216806144e057607f821691505b602082108114156144f4576144f3614603565b5b50919050565b61450382614661565b810181811067ffffffffffffffff8211171561452257614521614632565b5b80604052505050565b60006145368261447c565b91507fffffffffffffffffffffffffffffffffffffffffffffffffffffffffffffffff821415614569576145686145a5565b5b600182019050919050565b600061457f8261447c565b915061458a8361447c565b92508261459a576145996145d4565b5b828206905092915050565b7f4e487b7100000000000000000000000000000000000000000000000000000000600052601160045260246000fd5b7f4e487b7100000000000000000000000000000000000000000000000000000000600052601260045260246000fd5b7f4e487b7100000000000000000000000000000000000000000000000000000000600052602260045260246000fd5b7f4e487b7100000000000000000000000000000000000000000000000000000000600052604160045260246000fd5b6000601f19601f8301169050919050565b7f4552433732313a207472616e7366657220746f206e6f6e20455243373231526560008201527f63656976657220696d706c656d656e7465720000000000000000000000000000602082015250565b7f4f776e61626c653a206e6577206f776e657220697320746865207a65726f206160008201527f6464726573730000000000000000000000000000000000000000000000000000602082015250565b7f4552433732313a207472616e736665722066726f6d20696e636f72726563742060008201527f6f776e6572000000000000000000000000000000000000000000000000000000602082015250565b7f4552433732313a20746f6b656e20616c7265616479206d696e74656400000000600082015250565b7f446f6e6174696f6e20616d6f756e74206d75737420626520677265617465722060008201527f7468616e20300000000000000000000000000000000000000000000000000000602082015250565b7f4552433732313a207472616e7366657220746f20746865207a65726f2061646460008201527f7265737300000000000000000000000000000000000000000000000000000000602082015250565b7f4552433732313a20617070726f766520746f2063616c6c657200000000000000600082015250565b7f43726561746f722063616e6e6f7420646f6e61746520746f207468656972206f60008201527f776e204e46540000000000000000000000000000000000000000000000000000602082015250565b7f4552433732313a206f70657261746f7220717565727920666f72206e6f6e657860008201527f697374656e7420746f6b656e0000000000000000000000000000000000000000602082015250565b7f476f616c20616d6f756e7420686173206265656e207265616368656400000000600082015250565b7f4552433732313a20617070726f76652063616c6c6572206973206e6f74206f7760008201527f6e6572206e6f7220617070726f76656420666f7220616c6c0000000000000000602082015250565b7f4552433732313a2062616c616e636520717565727920666f7220746865207a6560008201527f726f206164647265737300000000000000000000000000000000000000000000602082015250565b7f4552433732313a206f776e657220717565727920666f72206e6f6e657869737460008201527f656e7420746f6b656e0000000000000000000000000000000000000000000000602082015250565b7f4552433732313a206d696e7420746f20746865207a65726f2061646472657373600082015250565b7f4552433732313a20617070726f76656420717565727920666f72206e6f6e657860008201527f697374656e7420746f6b656e0000000000000000000000000000000000000000602082015250565b7f4f776e61626c653a2063616c6c6572206973206e6f7420746865206f776e6572600082015250565b7f4552433732314d657461646174613a2055524920717565727920666f72206e6f60008201527f6e6578697374656e7420746f6b656e0000000000000000000000000000000000602082015250565b7f4f6e6c79207468652063726561746f722063616e2061646420726573756c7473600082015250565b7f4552433732313a20617070726f76616c20746f2063757272656e74206f776e6560008201527f7200000000000000000000000000000000000000000000000000000000000000602082015250565b7f4552433732313a207472616e736665722063616c6c6572206973206e6f74206f60008201527f776e6572206e6f7220617070726f766564000000000000000000000000000000602082015250565b7f4e465420646f6573206e6f742065786973740000000000000000000000000000600082015250565b614bec81614400565b8114614bf757600080fd5b50565b614c0381614424565b8114614c0e57600080fd5b50565b614c1a81614430565b8114614c2557600080fd5b50565b614c318161447c565b8114614c3c57600080fd5b5056fea2646970667358221220aea1f7a2cdc1e6c56c9ea42a3f536428d6241e4bba4fab778efc9319c4ec069d64736f6c63430008010033",
  "immutableReferences": {},
  "source": "// SPDX-License-Identifier: MIT\r\npragma solidity ^0.8.1;\r\n\r\nimport \"@openzeppelin/contracts/token/ERC721/ERC721.sol\";\r\nimport \"@openzeppelin/contracts/access/Ownable.sol\";\r\n\r\ncontract CharityNFTTT is ERC721, Ownable {\r\n    struct NFTDetails {\r\n        string name;\r\n        string description;\r\n        string imageURI;\r\n        uint256 goalAmount;\r\n        uint256 totalDonated;\r\n        address payable creator;\r\n    }\r\n\r\n    struct Donation {\r\n        address donor;\r\n        uint256 amount;\r\n    }\r\n\r\n    struct Result {\r\n        string imageURI;\r\n        string description;\r\n    }\r\n\r\n    NFTDetails[] public nfts;\r\n    mapping(uint256 => Donation[]) public donations;\r\n    mapping(uint256 => Result[]) public results;\r\n\r\n    constructor() ERC721(\"CharityNFT\", \"CHNFT\") {}\r\n\r\n    function createNFT(string memory name, string memory description, string memory imageURI, uint256 goalAmount) public {\r\n        nfts.push(NFTDetails(name, description, imageURI, goalAmount, 0, payable(msg.sender)));\r\n        uint256 newNFTId = nfts.length - 1;\r\n        _mint(msg.sender, newNFTId);\r\n    }\r\n\r\n    function donate(uint256 nftId) public payable {\r\n        require(nftId < nfts.length, \"NFT does not exist\");\r\n        require(msg.value > 0, \"Donation amount must be greater than 0\");\r\n        require(nfts[nftId].creator != msg.sender, \"Creator cannot donate to their own NFT\");\r\n        require(nfts[nftId].totalDonated + msg.value <= nfts[nftId].goalAmount, \"Goal amount has been reached\");\r\n\r\n        nfts[nftId].totalDonated += msg.value;\r\n        donations[nftId].push(Donation(msg.sender, msg.value));\r\n        nfts[nftId].creator.transfer(msg.value);\r\n    }\r\n\r\n    function addResult(uint256 nftId, string memory imageURI, string memory description) public {\r\n        require(nftId < nfts.length, \"NFT does not exist\");\r\n        require(nfts[nftId].creator == msg.sender, \"Only the creator can add results\");\r\n\r\n        results[nftId].push(Result(imageURI, description));\r\n    }\r\n\r\n    function getDonations(uint256 nftId) public view returns (Donation[] memory) {\r\n        return donations[nftId];\r\n    }\r\n\r\n    function getResults(uint256 nftId) public view returns (Result[] memory) {\r\n        return results[nftId];\r\n    }\r\n\r\n    function getNFTs() public view returns (NFTDetails[] memory) {\r\n        return nfts;\r\n    }\r\n\r\n    function getUserDonations(address user) public view returns (uint256[] memory nftIds, uint256[] memory amounts) {\r\n        uint256 donationCount = 0;\r\n        for (uint256 i = 0; i < nfts.length; i++) {\r\n            for (uint256 j = 0; j < donations[i].length; j++) {\r\n                if (donations[i][j].donor == user) {\r\n                    donationCount++;\r\n                }\r\n            }\r\n        }\r\n\r\n        nftIds = new uint256[](donationCount);\r\n        amounts = new uint256[](donationCount);\r\n        uint256 index = 0;\r\n        for (uint256 i = 0; i < nfts.length; i++) {\r\n            for (uint256 j = 0; j < donations[i].length; j++) {\r\n                if (donations[i][j].donor == user) {\r\n                    nftIds[index] = i;\r\n                    amounts[index] = donations[i][j].amount;\r\n                    index++;\r\n                }\r\n            }\r\n        }\r\n\r\n        return (nftIds, amounts);\r\n    }\r\n\r\n}\r\n",
  "sourcePath": "C:\\Users\\Asus\\Desktop\\NFTProject\\contracts\\CharityNFTTT.sol",
  "compiler": {
    "name": "solc",
    "version": "0.8.1+commit.df193b15.Emscripten.clang"
  },
  "schemaVersion": "3.4.16",
  "updatedAt": "2024-06-15T07:13:32.839Z",
  "networkType": "ethereum",
  "devdoc": {
    "kind": "dev",
    "methods": {
      "approve(address,uint256)": {
        "details": "See {IERC721-approve}."
      },
      "balanceOf(address)": {
        "details": "See {IERC721-balanceOf}."
      },
      "getApproved(uint256)": {
        "details": "See {IERC721-getApproved}."
      },
      "isApprovedForAll(address,address)": {
        "details": "See {IERC721-isApprovedForAll}."
      },
      "name()": {
        "details": "See {IERC721Metadata-name}."
      },
      "owner()": {
        "details": "Returns the address of the current owner."
      },
      "ownerOf(uint256)": {
        "details": "See {IERC721-ownerOf}."
      },
      "renounceOwnership()": {
        "details": "Leaves the contract without owner. It will not be possible to call `onlyOwner` functions anymore. Can only be called by the current owner. NOTE: Renouncing ownership will leave the contract without an owner, thereby removing any functionality that is only available to the owner."
      },
      "safeTransferFrom(address,address,uint256)": {
        "details": "See {IERC721-safeTransferFrom}."
      },
      "safeTransferFrom(address,address,uint256,bytes)": {
        "details": "See {IERC721-safeTransferFrom}."
      },
      "setApprovalForAll(address,bool)": {
        "details": "See {IERC721-setApprovalForAll}."
      },
      "supportsInterface(bytes4)": {
        "details": "See {IERC165-supportsInterface}."
      },
      "symbol()": {
        "details": "See {IERC721Metadata-symbol}."
      },
      "tokenURI(uint256)": {
        "details": "See {IERC721Metadata-tokenURI}."
      },
      "transferFrom(address,address,uint256)": {
        "details": "See {IERC721-transferFrom}."
      },
      "transferOwnership(address)": {
        "details": "Transfers ownership of the contract to a new account (`newOwner`). Can only be called by the current owner."
      }
    },
    "version": 1
  },
  "userdoc": {
    "kind": "user",
    "methods": {},
    "version": 1
  }
}